:100000000C9446000C9465000C9465000C946500FB
:100010000C9465000C9465000C9465000C946500CC
:100020000C9465000C9465000C9465000C946500BC
:100030000C9465000C9497030C9465000C94650077
:100040000C9465000C9465000C9465000C9465009C
:100050000C9465000C9465000C9465000C9465008C
:100060000C9465000C9465000C9465000C9465007C
:100070000C9465000C9465000C9465000C9465006C
:100080000C9465000C9465000C94650011241FBE4F
:10009000CFEFD0E4DEBFCDBF12E0A0E0B1E0E4E4FA
:1000A000FCE000E00BBF02C007900D92AA32B1073E
:1000B000D9F722E0AAE2B2E001C01D92AE38B20741
:1000C000E1F70E94DD040C9420060C94000040E04F
:1000D00050E00CC000002F5F3F4F02C020E030E036
:1000E000273063E03607B4F34F5F5F4F4817590777
:1000F000ACF308959BB19F7B9BB985B98BB18068A8
:100100008BB900008BB18F778BB982E090E00E94B1
:100110006700089581E00E947A000895813120F4FB
:1001200081580E947A00089581550E947A000895AE
:1001300084E690E00E94670088E30E947A0086E0EF
:100140000E947A008FE00E947A0081E00E947A008B
:100150008AE090E00E94670008959BB190649BB98B
:1001600085B98BB180688BB900008BB18F778BB963
:1001700081E090E00E9467000895EF92FF920F9354
:100180001F93CF93DF93182FEB010E948A000EC0BC
:1001900001E0010F812F0E948E007E018FEFE81A8F
:1001A000F80A88810E94AD00102FE7018881811133
:1001B000EFCFDF91CF911F910F91FF90EF900895B6
:1001C000FF920F931F93CF93DF93EB010DC0FF249A
:1001D000F394F80E0E948E008E010F5F1F4F8881EE
:1001E0000E94AD008F2DE80198819111F0CFDF9131
:1001F000CF911F910F91FF9008950F931F93CF936D
:10020000DF93FC01EB0150E0DA011197A60FB71F55
:100210001C92425051092EC08E01040F151F9F01E0
:10022000ADECBCEC0E941106969587959695879546
:10023000969587959C01220F331F880F991F880F71
:10024000991F880F991F820F931F9F01281B390B3D
:10025000C901805DD8018C939F01ADECBCEC0E947C
:100260001106FC01F695E795F695E795F695E79565
:1002700041505109552384F6CE01DF91CF911F9152
:100280000F910895009721F08130910531F00EC053
:1002900020913202223050F407C0209132022230E5
:1002A00028F080E090E002C081E090E0009721F02B
:1002B0008130910531F0089510922D0210922C0298
:1002C000089524E630E030932D0220932C02089507
:1002D000009721F08130910541F00CC0209132024D
:1002E000213069F481E090E00AC02091320221308F
:1002F00021F405C080E090E002C080E090E0813011
:100300009105D9F42091330221110CC0E091310202
:10031000F0E0E05BFE4F2081233279F422E020936D
:1003200032020895E0913102F0E0EC5EFE4F208150
:10033000233219F422E0209332020895009721F02D
:100340008130910589F015C0109231022CE0209384
:1003500000011092300210922F02209132022130BF
:1003600069F481E090E00AC020913202213021F44A
:1003700005C080E090E002C080E090E0813091050F
:1003800029F52091300230910001231720F42F5FCE
:10039000209330020895209131022C3320F42F5FF6
:1003A0002093310202C0109231021092300220914B
:1003B0002F02243020F42F5F20932F0208951092F3
:1003C0002F02343018F031503093000108959C0111
:1003D00090B190959370909334022130310579F06B
:1003E0002230310579F02115310579F49923C1F0D6
:1003F0009330B1F0913061F421E030E011C09130E0
:1004000051F40EC0923051F40BC020E030E008C02F
:1004100022E030E005C020E030E002C020E030E023
:100420002130310521F02230310521F006C0109233
:10043000330203C081E080933302C90108950F9312
:100440001F93CF93DF938C01009719F0019741F030
:100450000CC080913202813069F401E010E00AC0E2
:1004600080913202813021F405C000E010E002C02A
:1004700000E010E00130110559F12FC080913102E8
:100480009E01280F311D2C3331052CF08C0F8C531D
:1004900080932E0203C08C0F80932E028C2F8F5FCF
:1004A0000E948E00E0912E02F0E0E05BFE4F808122
:1004B0000E94AD008C2F8F5E0E948E00E0912E0274
:1004C000F0E0EC5EFE4F80810E94AD00219602C0FC
:1004D000C0E0D0E0C031D1058CF2C801DF91CF91EE
:1004E0001F910F910895809132028130D9F40E94BA
:1004F0008E0080E20E94AD0081E10E948E0080E2C9
:100500000E94AD00909133028091010120E1929F01
:10051000800D11240E948E008EE30E94AD0080E0C9
:100520000E948E0080E090E008950F931F93CF9378
:10053000DF93EC0180B18095847080933502C230E6
:10054000D10531F134F4209769F0C130D105A1F023
:100550004DC0C430D105D1F164F1C530D10509F4E5
:1005600040C044C01092320210923302882309F432
:1005700045C0C1E0D0E042C01092320281113EC0BD
:1005800081E0809332020E948A00C2E0D0E036C04F
:1005900081111092320280913202823051F18091A9
:1005A0002A0290912B02019690932B0280932A02AB
:1005B00025C0882329F010923202C5E0D0E01EC089
:1005C00084E080933202C4E0D0E018C08823B1F008
:1005D0001092320210922B0210922A02C5E0D0E053
:1005E0000DC010923202811109C006C0C0E0D0E0F7
:1005F00005C0C3E0D0E002C0C0E0D0E0C330D10508
:10060000C9F1C430D105E1F1209709F04EC06DE881
:1006100071E081E00E94BD0080E00E948E0045C034
:100620006EEA71E081E00E94BD0080E090E001C0D0
:100630000196803127E29207DCF36EEC71E081E0F5
:100640000E94BD0080E090E001C00196803127E269
:100650009207DCF36EEE71E081E00E94BD0080E065
:1006600090E001C00196803127E29207DCF30F5F32
:100670001F4F02C000E010E0063011058CF215C0DB
:100680006FE072E081E00E94BD0046E068E872E041
:1006900080912A0290912B020E94FD00BC018AE108
:1006A0000E94E00080E00E948E00CE01DF91CF9199
:1006B0001F910F910895609302017093030180933D
:1006C0000401909305016093360270933702809382
:1006D00038029093390208958BE0809381008DE772
:1006E00090E0909389008093880082E080936F006F
:1006F0001092850010928400809102019091030174
:10070000A0910401B09105018093360290933702C5
:10071000A0933802B09339028FB780688FBF0895D5
:1007200010928100089581E080933A0208951F920B
:100730000F920FB60F9211240BB60F922F933F9387
:100740004F935F936F937F938F939F93AF93BF93D9
:10075000EF93FF938091360290913702A091380277
:10076000B09139020197A109B109809336029093A3
:100770003702A0933802B0933902892B8A2B8B2B36
:1007800091F40E9493038091020190910301A09142
:100790000401B09105018093360290933702A09333
:1007A0003802B0933902FF91EF91BF91AF919F91C1
:1007B0008F917F916F915F914F913F912F910F900A
:1007C0000BBE0F900FBE0F901F901895442349F059
:1007D00021E030E002C0220F331F6A95E2F7822B3E
:1007E000089521E030E002C0220F331F6A95E2F73E
:1007F00020958223089521E030E002C0220F331FAC
:100800006A95E2F78223089540E064E08FEF0E944A
:10081000E60388B9000086B160E080950E94FB0382
:10082000811180C086B161E080950E94FB03811137
:100830007BC086B162E080950E94FB03811176C087
:1008400086B163E080950E94FB03811171C040E096
:1008500065E08FEF0E94E60388B9000086B160E092
:1008600080950E94FB03811165C086B161E080958F
:100870000E94FB03811160C086B162E080950E94F6
:10088000FB0381115BC086B163E080950E94FB038E
:10089000811156C040E066E08FEF0E94E60388B900
:1008A000000086B160E080950E94FB0381114AC080
:1008B00086B161E080950E94FB03811145C086B13D
:1008C00062E080950E94FB03811140C086B163E025
:1008D00080950E94FB0381113BC040E067E08FEFF1
:1008E0000E94E60388B9000086B160E080950E940E
:1008F000FB0381112FC086B161E080950E94FB034C
:1009000081112AC086B162E080950E94FB038111AB
:1009100025C086B163E080950E94FB038823F9F02F
:1009200084E4089581E3089584E3089587E30895B6
:100930008AE2089582E3089585E3089588E308959F
:1009400080E3089583E3089586E3089589E3089595
:1009500083E2089581E4089582E4089583E408958C
:100960000F931F93CF93DF93B62FA72FF82FE92F65
:10097000022F132FD42FC52F04C0062F172FD82FC7
:10098000C92F6B2F7A2F8F2F9E2F202F312F4D2F76
:100990005C2F0E94EF05B02FA12FFD2FEC2F6115CA
:1009A00071058105910549F7602F712F8D2F9C2FBF
:1009B000DF91CF911F910F910895CF93DF93CDB722
:1009C000DEB72E970FB6F894DEBF0FBECDBF11B8BD
:1009D0008FEF82B984B915B88AB91BB89EE0E6E0FA
:1009E000F1E0DE01119601900D929A95E1F7EDE7A5
:1009F000F2E080834AE050E060E070E0418352839F
:100A000063837483458356836783708727EE31E061
:100A100032872187E2E7F2E0808304E610E020E0FD
:100A200030E0018312832383348305831683278375
:100A3000308723E732E032872187E7E6F2E08083E0
:100A400006E910E020E030E0018312832383348341
:100A50000583168327833087A5E9B2E0B287A18793
:100A6000ECE5F2E080830F2EF2E38F2E912CA12C87
:100A7000B12CF02D81829282A382B48285829682EB
:100A8000A782B086AEE9B1E0B287A187E1E5F2E0E6
:100A90008083018312832383348305831683278312
:100AA00030872FE132E032872187E6E4F2E080836D
:100AB000418352836383748345835683678370873E
:100AC00028E631E032872187EBE3F2E0808384EF90
:100AD00091E0A0E0B0E081839283A383B483858317
:100AE0009683A783B08782E491E09287818701E0B3
:100AF00010E00F2EFAE08F2E912CA12CB12CF02DAE
:100B000018C0F801EE0FFF1F81E090E08C0F9D1FD1
:100B1000E80FF91F0190F081E02D2181328143819E
:100B20005481C501B4010E94B0044B015C010F5F08
:100B30001F4F0730110528F3C501B4010E945B0364
:100B40000E946C030E9498000E948A0080E00E942C
:100B50008E00E12CF12C38C0F701EE0FFF1FA1E051
:100B6000B0E0AC0FBD1FEA0FFB1F00811181F8013F
:100B7000458156816781708581819281A381B4818D
:100B8000481759076A077B0779F40184F285E02D3D
:100B9000D8018C91082E000C990B0995F8018083DF
:100BA0001582168217821086F80185819681A781A9
:100BB000B085880D991DAA1DBB1D85839683A783CB
:100BC000B087FFEFEF1AFF0A87E0E816F10420F282
:100BD00080913A028823E1F310923A02BACFA1E25F
:100BE0001A2EAA1BBB1BFD010DC0AA1FBB1FEE1FA7
:100BF000FF1FA217B307E407F50720F0A21BB30BF2
:100C0000E40BF50B661F771F881F991F1A9469F76D
:100C100060957095809590959B01AC01BD01CF01C9
:100C20000895A29FB001B39FC001A39F700D811DC5
:100C30001124911DB29F700D811D1124911D0895E5
:040C4000F894FFCF56
:100C44000C01010000007D02720267025C02510285
:100C540046023B0220202020202020202320202088
:100C64002320202020202023202020202020232077
:100C74002020202323232020202020202020232064
:100C84002020202320202020202023232020202354
:100C9400202020202020202020202320202023204A
:100CA4002023202020232323202020202320202031
:100CB4002020202023202023202020202320202027
:100CC4002020202320202020202320203E2D2D2DD5
:100CD4002D2D204C434421202D2D2D2D2D48656C88
:100CE4007020536D656520422046726565002020A2
:100CF40020202020206F6F20202020202020202052
:100D040020202020206F6F20202020202000202061
:100D1400202020202058582020202020202020205F
:100D240020202020205858202020202020002D5F23
:100D34002D5F2D5F203030205F2D5F2D5F2D2D5FC7
:100D44002D5F2D5F203030205F2D5F2D5F2D002D16
:100D54002D2047414D45204F5645522E202D2D2004
:0A0D64002053434F52453A2000008F
:00000001FF
